S02400005155544D535F5374656572696E67576865656C5F4669726D776172652E7372656335
S113000045C4000060C400005EC400005CC400007D
S11300105AC4000058C4000056C4000054C4000070
S113002052C4000050C400004EC400004CC4000080
S11300304AC4000048C4000046C4000044C4000090
S113004042C4000040C400003EC400003CC40000A0
S11300503AC4000038C4000036C4000034C40000B0
S113006032C4000030C400002EC400002CC40000C0
S11300702AC4000028C4000026C4000024C40000D0
S113008022C4000020C400001EC4000000000000C0
S1130090000000000000000000000000000000005C
S11300A0000000000000000000000000000000004C
S11300B0000000000000000000000000000000003C
S11300C0000000000000000000000000000000002C
S11300D0000000000000000000000000000000001C
S11300E0000000000000000000000000000000000C
S11300F000000000000000000000000000000000FC
S113010000000000000000000000000000000000EB
S113011000000000000000000000000000000000DB
S113012000000000000000000000000000000000CB
S113013000000000000000000000000000000000BB
S113014000000000000000000000000000000000AB
S1130150000000000000000000000000000000009B
S1130160000000000000000000000000000000008B
S1130170000000000000000000000000000000007B
S1130180000000000000000000000000000000006B
S1130190000000000000000000000000000000005B
S11301A0000000000000000000000000000000004B
S11301B0000000000000000000000000000000003B
S11301C0000000000000000000000000000000002B
S11301D000000000000003F8000000000000000020
S11301E0000000000000000000000000000000000B
S11301F00000000000001FFE00FC03F7FFFF3FC0EB
S11302001FE01FF0000000000000000000000000DC
S11302100000000000007FFF80FC07E7FFFE3FC0F6
S11302203FE01FE0000000000000000000000000AC
S1130230000000000000FFFFC1F807E7FFFE3FC019
S11302403FC01FE0000000000000000000000000AC
S1130250000000000001FFFFC1F807EFFFFE7F80F0
S11302603FC03FE00000000000000000000000006C
S1130270000000000007FFFFE1F80FCFFFFC7F80C4
S11302803FC03FC00000000000000000000000006C
S1130290000000000007FC7FE3F00FC03F007F80F8
S11302A07F803FC00000000000000000000000004C
S11302B000000000000FF01FE3F00FC03F00FF003C
S11302C07F807FC0000000000000000000000000EC
S11302D000000000001FC00FE3F01F807E00FF003D
S11302E07F807F800000000000000000000000000C
S11302F000000000003F800FE7E01F807E0000FF49
S1130300007F8000000000000000000000000000EA
S113031000000000003F800FE7E01F807E0000FF28
S113032000FF0000000000000000000000000000CA
S113033000000000007F000FE7E03F00FC0001FF29
S113034000FF0000000000000000000000000000AA
S113035000000000007F000FCFC03F00FC0001FE42
S113036000FF00000000000000000000000000008A
S113037000000000007E000FCFC03F00FC0001FE23
S113038001FE00000000000000000000000000006A
S113039000000000007E01FFCFC07E01F80003FED4
S11303A001FE00000000000000000000000000004A
S11303B00000000000FE03FF9F807E01F80003FCA4
S11303C001FE00000000000000000000000000002A
S11303D00000000000FE03FF9F807E01F80003FC84
S11303E003FC00000000000000000000000000000A
S11303F00000000000FE01FF1F80FC03F007F8036B
S1130400FC03FC00000000000000000000000000ED
S11304100000000000FF01FF1F80FC03F007F80745
S1130420FC03FC00000000000000000000000000CD
S11304300000000000FF83FE3F81F803F00FF8077F
S1130440F803FC00000000000000000000000000B1
S113045000000000007FFFFC3FFFF807F00FF007EB
S1130460F807F80000000000000000000000000091
S113047000000000007FFFFC1FFFF007E00FF00FFB
S1130480F807F80000000000000000000000000071
S113049000000000003FFFFC1FFFE007E01FF00F1B
S11304A0F007F80000000000000000000000000059
S11304B000000000003FFFFE0FFFC00FE01FE00F31
S11304C0F00FF80000000000000000000000000031
S11304D000000000000FFFFE07FF000FC01FE01F19
S11304E0F00FF00000000000000000000000000019
S11304F0000000000003F87E01F8000FC01FC01FB9
S1130500E00FF00000000000000000000000000008
S113051000000000000000000000000000000000D7
S113052000000000000000000000000000000000C7
S113053000000000000000000000000000000000B7
S113054000000000000000000000000000000000A7
S11305500000000007FFFFFFFFFFFFFFFFFFFFFF9B
S1130560FFFFE000000000000000000000000000A9
S1130570000000000FFFFFFFFFFFFFFFFFFFFFFF73
S1130580FFFFE00000000000000000000000000089
S1130590000000000FFFFFFFFFFFFFFFFFFFFFFF53
S11305A0FFFFC00000000000000000000000000089
S11305B0000000000EFDF03C0781F03E0F81F03E8C
S11305C00781C000000000000000000000000000DF
S11305D0000000001C79E01C0701E03C0701E03C3E
S11305E00701C0000000000000000000000000003F
S11305F0000000001C61C71F3E38E738CF39C71C14
S113060067CF800000000000000000000000000030
S1130610000000001C03CF1E3C79E7383F318F1CDB
S1130620E7CF800000000000000000000000000090
S11306300000000038038F1E7CF9C07C1E039F3825
S11306400F8F800000000000000000000000000088
S11306500000000039038F3E7CF1C0FF8E079E38F6
S11306601F9F0000000000000000000000000000C8
S11306700000000039E78C3C7C63CCF39C1F8C7930
S11306809F9F000000000000000000000000000028
S11306900000000071E7807CFC078CF01C7F80F177
S11306A09F1F000000000000000000000000000088
S11306B00000000073C7C1FCFE0F9C783CFFC1F32F
S11306C08F3E000000000000000000000000000059
S11306D0000000007FFFFFFFFFFFFFFFFFFFFFFFA2
S11306E0FFFE000000000000000000000000000009
S11306F000000000FFFFFFFFFFFFFFFFFFFFFFFF02
S1130700FFFE0000000000000000000000000000E8
S113071000000000000000000000000000000000D5
S113072000000000000000000000000000000000C5
S113073000000000000000000000000000000000B5
S113074000000000000000000000000000000000A5
S11307500000000000000000000000000000000095
S11307600000000000000000000000000000000085
S11307700000000000000000000000000000000075
S11307800000000000000000000000000000000065
S11307900000000000000000000000000000000055
S11307A00000000000000000000000000000000045
S11307B00000000000000000000000000000000035
S11307C00000000000000000000000000000000025
S11307D00000000000000000000000000000000015
S11307E00000000000000000000000000000000005
S11307F000000000000000000000000000000000F5
S113080000000000000000000000000000000000E4
S113081000000000000000000000000000000000D4
S113082000000000000000000000000000000000C4
S113083000000000000000000000000000000000B4
S113084000000000000000000000000000000000A4
S11308500000000000000000000000000000000094
S11308600000000000000000000000000000000084
S11308700000000000000000000000000000000074
S113088000000000000000000000000011241FBE52
S1130890CFEFD0E4DEBFCDBF15E0A0E0B1E0E0EFE4
S11308A0F7E100E00BBF02C007900D92A03CB10736
S11308B0D9F727E1A0ECB5E001C01D92A43DB20731
S11308C0E1F74CD093C79CCBAAE7B0E01C92ECE7CD
S11308D0F0E080818F7D80838081806480838C912F
S11308E087688C930895ECE7F0E09081907E8F7197
S11308F0892B8083EAE7F0E08081806480838081B3
S113090084FFFDCF8091780020917900EAE7F0E040
S1130910908190619083237090E0922B0895F5D29A
S11309208CE890E019D442D22FEF8BE792E9215062
S113093080409040E1F700C00000E7C208958AB10A
S1130940886C8AB984B1836A84B981B181B92F9AD8
S1130950BBDF5CD4EED17894E2CF0895F0DF41E0C0
S113096060E070E080E090E0E4D241E060E070E0BC
S113097081E090E0DED241E060E070E082E090E06F
S1130980D8D241E060E070E083E090E0D2D241E070
S113099060E070E084E090E0CCD208D240EB55E017
S11309A064E170E082E390E08BD300D20BEB15E0BE
S11309B0C4E12FEF30E782E0215030408040E1F77E
S11309C000C0000080E08FDF8093C0059093C105D4
S11309D09F938F931F930F931F92CF931F92CF9345
S11309E08ED3E4D19FEF20E732E091502040304095
S11309F0E1F700C000008091C0059091C1052DB7BA
S1130A003EB7285F3F4F0FB6F8943EBF0FBE2DBFD1
S1130A108A3F910518F45E985F98CBCF9C012A5FBA
S1130A2031092A3F310518F45E9A5F98C2CF9C01C0
S1130A30245F31402A3F310518F45E985F9AB9CF9C
S1130A408E3E924008F4B5CF5E9A5F9AB2CF299851
S1130A505B9AE1D35B9A299A089529985B98DBD332
S1130A605B9A299A089580E0F8CF0895CF93DF9395
S1130A70D82FC62F85E1F1DF8CE18D0FE8DF8CE103
S1130A808C0FE5DFDF91CF910895CF93DF93D82FBB
S1130A90C62F85E7E2DF8D2FDADF8C2FD8DFDF91D9
S1130AA0CF9108958CE5D9CF0895CF93C82F81EACB
S1130AB0D4DF8C2FCCDFCF910895CF93C82F81EA58
S1130AC0CCDF8C2FC4DFCF910895CF93C82F8BEA4E
S1130AD0C4DF8C2FBCDFCF9108958EEABECF08957A
S1130AE08FEABBCF0895CF93DF93853020F0803217
S1130AF018F08FE101C085E0D82FD695633028F037
S1130B00C62F603118F0CFE001C0C3E081EBA5DF50
S1130B10C69520E1C29FC00111248D2B98DFDF917F
S1130B20CF910895CF93DF93D82FC62F83EB95DF12
S1130B3020E1C29FC00111248D2B89DFDF91CF9169
S1130B400895CF93DF93D82FC62F84EB86DF8D2FA4
S1130B50806A7DDF8C2F880F880F880F856077DF90
S1130B60DF91CF910895CF93DF93D82FC62F85EBD4
S1130B7074DF8C2F880F880F8D2B69DFDF91CF9165
S1130B800895CF93C82F86EB68DF8C2FC03108F00F
S1130B908FE05DDFCF9108958F92AF92BF92CF9295
S1130BA0DF92EF92FF920F931F93CF93DF93CDB712
S1130BB0DEB7B82ED62EF42E122F88EB4EDF8B2DF7
S1130BC046DF8D2D44DF8F2D42DF812F40DF802FC4
S1130BD03EDF8E2D3CDF8C2D3ADF8A2D38DF882DC9
S1130BE036DF8E8534DF8F8532DF888930DF89896F
S1130BF02EDF8A892CDF8B892ADF35DFDF91CF91C5
S1130C001F910F91FF90EF90DF90CF90BF90AF9026
S1130C108F9008958F92AF92CF92EF920F9384EBBF
S1130C208F9388EA8F938CE98F9380E98F9384E87C
S1130C308F9388E78F930F2EFCE68F2EF02D0F2EC7
S1130C40F0E6AF2EF02D0F2EF4E5CF2EF02D0F2E63
S1130C50F8E4EF2EF02D0CE320E344E268E18CE0AD
S1130C609BDF0F900F900F900F900F900F900F91AC
S1130C70EF90CF90AF908F900895CF93C82F8BEBC8
S1130C80ECDE8C2FE4DECF910895CF93C82F8EEB4A
S1130C90E4DE8C2FDCDECF910895CF93C82F81EC56
S1130CA0DCDE8C2FD4DECF910895CF93C82F87EC50
S1130CB0D4DE8C2FCCDECF910895CF93C82F8AEC4D
S1130CC0CCDE8C2FC4DECF910895CF93C82F81ED55
S1130CD0C4DE20E1C29FC00111248268B8DE80E234
S1130CE0B6DECF910895CF93C82F8DEFB6DE8C2F4B
S1130CF0880F880F8261ABDECF9108951F93CF9345
S1130D00DF93D82F60E480E0B1DE60E480E0BDDEF4
S1130D10C9DE10E408C08D2F9ADE8D2F98DEC150F5
S1130D20D1F7115011F0C0E4F6CFDF91CF911F91AC
S1130D30089528982FEF83ED90E321508040904050
S1130D40E1F700C00000289A80E0CDDFC6DE69E04C
S1130D5081E0E8DE8FE3B1DF80E0AFDE80E0A5DE96
S1130D6080EA7BDE84E173DE81E171DE60E080E0B5
S1130D70FADE81E0AADE6FE180E0E3DE8FE78DDF5B
S1130D808FE093DF47DF6EE085E0ADDE80E09DDF3E
S1130D908FE173DF88E0F5DE87E077DF86EA5DDEEA
S1130DA089EA5BDE80E0AADF9BCE08954F925F92D2
S1130DB06F927F928F929F92AF92BF92CF92DF9267
S1130DC0EF92FF920F931F93CF93DF930F2EFAECC2
S1130DD08F2EF5E09F2EF02D5401612CCC24C3946A
S1130DE0D12C7FC0CE01881999099C0112F4295F86
S1130DF03F4F3595279535952795359527958770D8
S1130E009078992324F40197886F9F6F0196F901D4
S1130E10EC52FA4E6081462F50E0082E02C05595E0
S1130E2047950A94E2F740FF51C0F901EC52FA4E9B
S1130E30960102C0220F331F8A95E2F7C9018095FB
S1130E40682360839881892F8370292F2C70E22E68
S1130E50F12CF594E794F594E794092F007310E0CE
S1130E601595079515950795159507951595079566
S1130E70592E569456945694569456945694482EF5
S1130E80440C440C482A67E7872DF0DD6FE7862D74
S1130E90FCDD08DEC701880F991F880F991FE82A17
S1130EA030E1439EC00111248E29D1DDC801880F91
S1130EB0991F880F991F082B80E1089F8001112436
S1130EC0852D880F880F8529802BC1DD7394219689
S1130ED020E4721287CF639430E4A30EB11C62162F
S1130EE019F0E501712C7ECFDF91CF911F910F9105
S1130EF0FF90EF90DF90CF90BF90AF909F908F9036
S1130F007F906F905F904F900895EAECF5E02AECA3
S1130F1035E108C011928E179F07E1F7FC01821793
S1130F20930721F0CF01805C9F4FF4CF80E0E6CEA1
S1130F3008950F931F93CF93DF939C0136952795C4
S1130F403695279500247695679507947695679549
S1130F500794762F602D620F731FFB0177230CF427
S1130F603796F595E795F595E795F595E795EB01B2
S1130F70C770D078DD2324F42197C86FDF6F2196E2
S1130F8051E0411101C050E083709927880F991FE7
S1130F90252F30E0220F331F252B30E0082E02C00E
S1130FA0220F331F0A94E2F743E050E0082E02C0F8
S1130FB0440F551F0A94E2F74095DB01A653BA4F3C
S1130FC05C91A42FB0E08D0102C0000F111F8A951F
S1130FD0E2F7C8018523821791F0DB01A653BA4FCB
S1130FE04523242B2C93EC52FA4E81E090E002C06E
S1130FF0880F991FCA95E2F79081892B8083DF912E
S1131000CF911F910F9108954F925F926F927F92AB
S11310108F929F92AF92BF92CF92DF92EF92FF9204
S11310200F931F93CF93DF93582E492E5B014032C9
S113103011F0405201C040E6842F90E001973C013A
S1131040660C771C660C771C860D971D9C0120503E
S11310503F4F390100E010E0690135E0C30ED11CB7
S113106017C0F40141914F0150E0002E02C0559584
S113107047950A94E2F74170B701CE015ADF2196F1
S11310808C149D0471F70F5F1F4F0830110539F060
S11310904301C52DD42D7501E00EF11EE2CFDF9181
S11310A0CF911F910F91FF90EF90DF90CF90BF9061
S11310B0AF909F908F907F906F905F904F90089526
S11310C0EF92FF920F931F93CF93DF93EC017B0179
S11310D0FA014081442361F08F010F5F1F4FB70174
S11310E0CE0192DF2696F80141918F014111F7CF8D
S11310F0DF91CF911F910F91FF90EF900895CF93BF
S1131100DF93CDB7DEB7C456D1090FB6F894DEBF6E
S11311100FBECDBF9E0121593F4FAF964EAD5FAD7F
S1131120AF9764E670E0CE0101967BD0AE014F5FCD
S11311305F4FAD966EAD7FADAD97AB968EAD9FAD67
S1131140AB97BEDFCC59DF4F0FB6F894DEBF0FBEAE
S1131150CDBFDF91CF9108957F928F929F92AF92EE
S1131160BF92CF92DF92EF92FF920F931F93CF9390
S1131170DF934C01E12CF12CCC24C394D12C34C04A
S1131180F80184919601072C02C0220F331F0A94A0
S1131190E2F7482F50E042235323072C02C0559511
S11311A047950A94E2F7B701CE01C3DE7A942196FB
S11311B0FFEF7F12E5CF88E0A80EB11C0F5F1F4F31
S11311C0A114E1E0BE0631F0E5010F2EF7E07F2E19
S11311D0F02DD6CFFFEFEF1AFF0A80E2880E911CA4
S11311E0E0E4EE16F10421F08401A12CB12CECCF43
S11311F0DF91CF911F910F91FF90EF90DF90CF90EF
S1131200BF90AF909F908F907F90089580E58CBDA4
S11312101DBC1EBC08958EBD0DB407FEFDCF8EB55A
S113122008950F931F93CF93DF93CDB7DEB72E9717
S11312300FB6F894DEBF0FBECDBF8C01FA0186E075
S11312408C831A83098377FF02C060E070E8CB01C6
S113125001979E838D83A901BF01CE01019619D008
S11312604D815E8157FD0AC02F813885421753078F
S11312700CF49A01F801E20FF31F10822E960FB6B8
S1131280F894DEBF0FBECDBFDF91CF911F910F91B8
S113129008952F923F924F925F926F927F928F9216
S11312A09F92AF92BF92CF92DF92EF92FF920F93F1
S11312B01F93CF93DF93CDB7DEB72B970FB6F89478
S11312C0DEBF0FBECDBF6C017B018A01FC0117821A
S11312D01682838181FFBFC1CE0101963C01F601D4
S11312E09381F70193FD859193FF81917F01882379
S11312F009F4ADC1853239F493FD859193FF819151
S11313007F01853221F4B60190E0D6D1E8CF912C4B
S1131310212C312CFFE1F315D8F08B3279F038F41D
S1131320803279F08332A1F4232D20611DC08D32E7
S113133061F0803369F4232D216016C0832D82600F
S1131340382EE32DE4603E2E2AC0F32DF8601DC034
S113135037FC2DC020ED280F2A3040F08E32B9F42E
S113136036FC75C1232D2064322E19C036FE06C00A
S11313708AE0989E200D1124922E11C0EAE02E9E40
S1131380200D1124222EF32DF0623F2E08C08C363E
S113139021F4832D8068382E02C0883641F4F70189
S11313A093FD859193FF81917F018111B3CF982F94
S11313B09F7D9554933028F40C5F1F4F9FE39983CE
S11313C00DC0833631F0833771F0833509F055C091
S11313D020C0F801808189830E5F1F4F8824839485
S11313E0912C530112C02801F2E04F0E511CF80158
S11313F0A080B18036FE03C0692D70E002C06FEF9B
S11314007FEFC5014ED14C018201F32DFF773F2EB2
S113141015C0280122E0420E511CF801A080B180C1
S113142036FE03C0692D70E002C06FEF7FEFC50187
S11314302DD14C01F32DF0683F2E820133FC19C0ED
S1131440822D90E088169906A0F4B60180E290E01F
S113145033D12A94F5CFF50137FC859137FE81917C
S11314605F01B60190E028D121102A9421E0821A6C
S113147091088114910479F7E1C0843611F089361A
S113148039F5F80137FE07C060817181828193814B
S11314900C5F1F4F08C060817181072E000C880B00
S11314A0990B0E5F1F4FF32DFF763F2E97FF09C058
S11314B090958095709561957F4F8F4F9F4FF06801
S11314C03F2E2AE030E0A30133D1882E861844C091
S11314D0853731F4232D2F7EB22E2AE030E025C04B
S11314E0932D997FB92E8F36C1F018F4883579F091
S11314F0AEC0803719F0883721F0A9C0E92FE06128
S1131500BE2EB4FE0DC0FB2DF460BF2E09C034FE08
S11315100AC0292F2660B22E06C028E030E005C09C
S113152020E130E002C020E132E0F801B7FE07C05C
S113153060817181828193810C5F1F4F06C060813D
S1131540718180E090E00E5F1F4FA301F1D0882EDF
S11315508618FB2DFF773F2E36FE0DC0232D2E7FE0
S1131560A22E891458F434FE0BC032FC09C0832D1A
S11315708E7EA82E05C0B82CA32C03C0B82C01C0A5
S1131580B92CA4FE0FC0FE01E80DF11D808180334B
S113159021F49A2D997EA92E09C0A2FE06C0B39407
S11315A0B39404C08A2D867809F0B394A3FC10C0C8
S11315B0A0FE06C0B21480F4280C922C9B180DC017
S11315C0B21458F4B60180E290E076D0B394F8CF28
S11315D0B21418F42B1802C0982C212CA4FE0FC0AE
S11315E0B60180E390E068D0A2FE16C0A1FC03C05F
S11315F088E790E002C088E590E0B6010CC08A2D2F
S1131600867851F0A1FE02C08BE201C080E2A7FC03
S11316108DE2B60190E050D0891430F4B60180E335
S113162090E04AD09A94F8CF8A94F301E80DF11D22
S11316308081B60190E040D08110F6CF222009F4D9
S11316404ECEB60180E290E037D02A94F7CFF6016F
S11316508681978102C08FEF9FEF2B960FB6F89487
S1131660DEBF0FBECDBFDF91CF911F910F91FF90D1
S1131670EF90DF90CF90BF90AF909F908F907F902E
S11316806F905F904F903F902F900895FC010590CC
S1131690615070400110D8F7809590958E0F9F1F70
S11316A00895FC016150704001900110D8F78095B5
S11316B090958E0F9F1F08950F931F93CF93DF93E1
S11316C0FB01238121FD03C08FEF9FEF2CC022FF7C
S11316D016C046815781248135814217530744F44B
S11316E0A081B1819D012F5F3F4F318320838C9373
S11316F0268137812F5F3F4F3783268314C08B01A8
S1131700EC01FB010084F185E02D0995892BE1F6BC
S1131710D80116968D919C911797019617969C93D4
S11317208E931697CE01DF91CF911F910F9108955B
S1131730FA01AA27283051F1203181F1E8946F93FE
S11317406E7F6E5F7F4F8F4F9F4FAF4FB1E03ED0A4
S1131750B4E03CD0670F781F891F9A1FA11D680F42
S1131760791F8A1F911DA11D6A0F711D811D911D75
S1131770A11D20D009F468943F912AE0269F1124EA
S11317803019305D3193DEF6CF010895462F47704E
S1131790405D4193B3E00FD0C9F7F6CF462F4F70A9
S11317A0405D4A3318F0495D31FD4052419302D007
S11317B0A9F7EACFB4E0A6959795879577956795AD
S11317C0BA95C9F700976105710508959B01AC01AD
S11317D00A2E06945795479537952795BA95C9F7D4
S11317E0620F731F841F951FA01D0895F894FFCFE7
S11317F000004F00000007000700147F147F14242A
S11318002A7F2A12231308646236495522500005A0
S1131810030000001C2241000041221C0014083E69
S1131820081408083E08080050300000080808089A
S113183008006060000020100804023E5149453E43
S113184000427F400042615149462141454B3118D5
S113185014127F1027454545393C4A4949300171E6
S11318600905033649494936064949291E003636D1
S11318700000005636000008142241001414141409
S11318801400412214080201510906324979413EEB
S11318907E1111117E7F494949363E414141227FE3
S11318A04141221C7F494949417F090909013E41BF
S11318B049497A7F0808087F00417F410020404160
S11318C03F017F081422417F404040407F020C02C8
S11318D07F7F0408107F3E4141413E7F090909068C
S11318E03E4151215E7F0919294646494949310142
S11318F0017F01013F4040403F1F2040201F3F40E7
S113190038403F631408146307087008076151499D
S11319104543007F41410002040810200041417FFB
S1131920000402010204404040404001020400005F
S113193020545454787F484444383844444420382C
S11319404444487F3854545418087E090102064917
S113195049493F7F0804047800447D400020404406
S11319603D007F1028440000417F40007C0418049F
S11319707C7C0804047838444444387C14141408E7
S1131980081414187C7C0804040848545454200493
S11319903F4440203C4040207C1C2040201C3C40D4
S11319A030403C44281028440C5050503C4464546B
S11319B04C44000836410000007F00000041360816
S11319C00002010204023E555541220000000000BD
S11319D000007900001824742E24487E4942405D9A
S11319E02222225D15167C161500007700000A5588
S11319F05555280001000100000A0D0A0408142AA4
S1131A001422040404041C00080808000101010154
S1131A1001000205020044445F4444000004020142
S1131A207E2020103E060F7F007F00181800000063
S1131A3040502000000A0D0A0022142A1408170836
S1131A40342A7D1708046A593048454020702926F5
S1131A5028707028262970702A252A707229262950
S1131A60707029242970702A2D2A707E117F4949AB
S1131A700E515171117C555654447C555654447C36
S1131A80565556447C5554554400457E4400004404
S1131A907E450000467D460000457C45007F49495F
S1131AA0413E7C0A11227D38454644383844464537
S1131AB03838464546383846454639384544453829
S1131AC022140814222E5149453A3C4142403C3CE0
S1131AD04042413C3C4241423C3C4140413C0C1070
S1131AE062110C7F1212120C403E014936205556E9
S1131AF054782054565578205655567820555655C6
S1131B00782055545578205657567824547854588C
S1131B100C525272133855565418385456551838B6
S1131B2056555618385554551800497A40000048FF
S1131B307A4100004A794200004A784200314A4E14
S1131B404A307A110A097030494A483030484A49C3
S1131B5030304A494A30304A494A31304A484A309A
S1131B6008082A08083864544C3838414220783828
S1131B7040422178384241227838424022780C5041
S1131B8052513C7E141414080C5150513C1E090946
S1131B90295E081515354E384446452030484A49D3
S1131BA020384546452030494A49207C4546453839
S1131BB02050507C031F151535510E151535467CE4
S1131BC055565544385556551800447C40007F48B6
S1131BD044404000497F44007C0812217C78100A6C
S1131BE009707C0912217C78110A0970384744472E
S1131BF038304B484B303E417F494938443854587B
S1131C007C1516354878110A091048545655202079
S1131C104856552048555655202049565520040508
S1131C207E0504083C4822013C4245423C3842457A
S1131C3022783C4340433C38434023780C116011E4
S1131C400C4466554C44486A5948004464554C4415
S1131C5048685A48004465564D4448695A4900004A
S1131C600201020000010201000001010100010261
S1131C70020100000001000000020502000201024E
S1131C8001007F05153A503E555541221814081499
S1131C900C444A4A515151514A4A44744241427493
S1131CA03132333435363738393000253034640036
S9030000FC
