S02400005155544D535F5374656572696E67576865656C5F4669726D776172652E7372656335
S113000045C4000053C4000051C400004FC40000A4
S11300104DC400004BC4000049C4000047C40000A4
S113002045C4000043C4000041C400003FC40000B4
S11300303DC400003BC4000039C4000037C40000C4
S113004035C4000033C4000031C400002FC40000D4
S11300502DC400002BC4000029C4000027C40000E4
S113006025C4000023C4000021C400001FC40000F4
S11300701DC400001BC4000019C4000017C4000004
S113008015C4000013C4000011C4000000000000E7
S1130090000000000000000000000000000000005C
S11300A0000000000000000000000000000000004C
S11300B0000000000000000000000000000000003C
S11300C0000000000000000000000000000000002C
S11300D0000000000000000000000000000000001C
S11300E0000000000000000000000000000000000C
S11300F000000000000000000000000000000000FC
S113010000000000000000000000000000000000EB
S113011000000000000000000000000000000000DB
S113012000000000000000000000000000000000CB
S113013000000000000000000000000000000000BB
S113014000000000000000000000000000000000AB
S1130150000000000000000000000000000000009B
S1130160000000000000000000000000000000008B
S1130170000000000000000000000000000000007B
S1130180000000000000000000000000000000006B
S1130190000000000000000000000000000000005B
S11301A0000000000000000000000000000000004B
S11301B0000000000000000000000000000000003B
S11301C0000000000000000000000000000000002B
S11301D000000000000003F8000000000000000020
S11301E0000000000000000000000000000000000B
S11301F00000000000001FFE00FC03F7FFFF3FC0EB
S11302001FE01FF0000000000000000000000000DC
S11302100000000000007FFF80FC07E7FFFE3FC0F6
S11302203FE01FE0000000000000000000000000AC
S1130230000000000000FFFFC1F807E7FFFE3FC019
S11302403FC01FE0000000000000000000000000AC
S1130250000000000001FFFFC1F807EFFFFE7F80F0
S11302603FC03FE00000000000000000000000006C
S1130270000000000007FFFFE1F80FCFFFFC7F80C4
S11302803FC03FC00000000000000000000000006C
S1130290000000000007FC7FE3F00FC03F007F80F8
S11302A07F803FC00000000000000000000000004C
S11302B000000000000FF01FE3F00FC03F00FF003C
S11302C07F807FC0000000000000000000000000EC
S11302D000000000001FC00FE3F01F807E00FF003D
S11302E07F807F800000000000000000000000000C
S11302F000000000003F800FE7E01F807E0000FF49
S1130300007F8000000000000000000000000000EA
S113031000000000003F800FE7E01F807E0000FF28
S113032000FF0000000000000000000000000000CA
S113033000000000007F000FE7E03F00FC0001FF29
S113034000FF0000000000000000000000000000AA
S113035000000000007F000FCFC03F00FC0001FE42
S113036000FF00000000000000000000000000008A
S113037000000000007E000FCFC03F00FC0001FE23
S113038001FE00000000000000000000000000006A
S113039000000000007E01FFCFC07E01F80003FED4
S11303A001FE00000000000000000000000000004A
S11303B00000000000FE03FF9F807E01F80003FCA4
S11303C001FE00000000000000000000000000002A
S11303D00000000000FE03FF9F807E01F80003FC84
S11303E003FC00000000000000000000000000000A
S11303F00000000000FE01FF1F80FC03F007F8036B
S1130400FC03FC00000000000000000000000000ED
S11304100000000000FF01FF1F80FC03F007F80745
S1130420FC03FC00000000000000000000000000CD
S11304300000000000FF83FE3F81F803F00FF8077F
S1130440F803FC00000000000000000000000000B1
S113045000000000007FFFFC3FFFF807F00FF007EB
S1130460F807F80000000000000000000000000091
S113047000000000007FFFFC1FFFF007E00FF00FFB
S1130480F807F80000000000000000000000000071
S113049000000000003FFFFC1FFFE007E01FF00F1B
S11304A0F007F80000000000000000000000000059
S11304B000000000003FFFFE0FFFC00FE01FE00F31
S11304C0F00FF80000000000000000000000000031
S11304D000000000000FFFFE07FF000FC01FE01F19
S11304E0F00FF00000000000000000000000000019
S11304F0000000000003F87E01F8000FC01FC01FB9
S1130500E00FF00000000000000000000000000008
S113051000000000000000000000000000000000D7
S113052000000000000000000000000000000000C7
S113053000000000000000000000000000000000B7
S113054000000000000000000000000000000000A7
S11305500000000007FFFFFFFFFFFFFFFFFFFFFF9B
S1130560FFFFE000000000000000000000000000A9
S1130570000000000FFFFFFFFFFFFFFFFFFFFFFF73
S1130580FFFFE00000000000000000000000000089
S1130590000000000FFFFFFFFFFFFFFFFFFFFFFF53
S11305A0FFFFC00000000000000000000000000089
S11305B0000000000EFDF03C0781F03E0F81F03E8C
S11305C00781C000000000000000000000000000DF
S11305D0000000001C79E01C0701E03C0701E03C3E
S11305E00701C0000000000000000000000000003F
S11305F0000000001C61C71F3E38E738CF39C71C14
S113060067CF800000000000000000000000000030
S1130610000000001C03CF1E3C79E7383F318F1CDB
S1130620E7CF800000000000000000000000000090
S11306300000000038038F1E7CF9C07C1E039F3825
S11306400F8F800000000000000000000000000088
S11306500000000039038F3E7CF1C0FF8E079E38F6
S11306601F9F0000000000000000000000000000C8
S11306700000000039E78C3C7C63CCF39C1F8C7930
S11306809F9F000000000000000000000000000028
S11306900000000071E7807CFC078CF01C7F80F177
S11306A09F1F000000000000000000000000000088
S11306B00000000073C7C1FCFE0F9C783CFFC1F32F
S11306C08F3E000000000000000000000000000059
S11306D0000000007FFFFFFFFFFFFFFFFFFFFFFFA2
S11306E0FFFE000000000000000000000000000009
S11306F000000000FFFFFFFFFFFFFFFFFFFFFFFF02
S1130700FFFE0000000000000000000000000000E8
S113071000000000000000000000000000000000D5
S113072000000000000000000000000000000000C5
S113073000000000000000000000000000000000B5
S113074000000000000000000000000000000000A5
S11307500000000000000000000000000000000095
S11307600000000000000000000000000000000085
S11307700000000000000000000000000000000075
S11307800000000000000000000000000000000065
S11307900000000000000000000000000000000055
S11307A00000000000000000000000000000000045
S11307B00000000000000000000000000000000035
S11307C00000000000000000000000000000000025
S11307D00000000000000000000000000000000015
S11307E00000000000000000000000000000000005
S11307F000000000000000000000000000000000F5
S113080000000000000000000000000000000000E4
S113081000000000000000000000000000000000D4
S113082000000000000000000000000000000000C4
S113083000000000000000000000000000000000B4
S113084000000000000000000000000000000000A4
S11308500000000000000000000000000000000094
S11308600000000000000000000000000000000084
S11308700000000000000000000000000000000074
S113088000000000000000000000000011241FBE52
S1130890CFEFD0E4DEBFCDBF21E0A0E0B1E001C0E6
S11308A01D92A230B207E1F70ED168C2A9CBAAE724
S11308B0B0E01C92ECE7F0E080818F7D8083808142
S11308C0806480838C9187688C930895ECE7F0E0D2
S11308D09081907E8F71892B8083EAE7F0E080819C
S11308E080648083808184FFFDCF80917800209193
S11308F07900EAE7F0E0908190619083237090E0C2
S1130900922B08951F93CF93DF93382F3078E82FDD
S1130910E074F0E0F595E795F595E795F595E7959D
S1130920982F9072990F990F682F607170E07595E8
S11309306795582F58705295507FF82FF470FF0F19
S1130940482F42704295440F440F407C8170782FA9
S1130950770F770F770F292F2695892F8695869500
S1130960822B892B969596959695982B962BD62F18
S1130970D695D92B862F86958695D82B6695669520
S11309806695D62B952F9695852F8F2B892B952F92
S113099096959695892B569556955695582B1F2FB7
S11309A01695152B8F2F86958695182BF695F6950B
S11309B0F6951F2BC42FC695842F872BC82B842F05
S11309C086958695C82B4695469546954C2BC72FFC
S11309D0C695C42B872F86958695C82B76957695D4
S11309E07695C72B232F2695832F86958695282BBE
S11309F0232B369536953695232B2E2B8E2F8695C5
S1130A00822B9E2F96959695892BE695E695E695ED
S1130A108E2B7ED08D2F7CD0812F7AD08C2F78D0C6
S1130A20DF91CF911F910895CF92DF92EF92FF92C1
S1130A300F931F93CF93DF936C0163E98CE174D020
S1130A406FE780E07ED08AD0760188EFD81A0DC097
S1130A50FE01849157DF2196C017D107C9F7F0E250
S1130A60EF0EF11CEC14FD0429F08701045C1F4F08
S1130A70E701EECFDF91CF911F910F91FF90EF909F
S1130A80DF90CF90089580E0F9D08CE890E0CCDF3F
S1130A902FEF8BE792E9215080409040E1F700C0AE
S1130AA0000080E0EBC008958AB1886C8AB984B1F3
S1130AB0836A84B981B181B92F9AF9DE54D11BD1EB
S1130AC07894E1CF0895F0DF80E000DF9093010196
S1130AD0809300018A3F910518F45E985F98F4CFE3
S1130AE09C012A5F31092A3F310518F45E9A5F9808
S1130AF0EBCF9C01245F31402A3F310518F45E9806
S1130B005F9AE2CF8E3E9240F8F25E9A5F9ADCCF13
S1130B1029985B9A2DD15B9A299A08955B98299814
S1130B2027D15B9A299A0895CF93DF93D82FC62FA4
S1130B3085E1F4DF8D2FECDF8C2FEADFDF91CF919D
S1130B400895CF93DF93D82FC62F85E7E7DF8D2F46
S1130B50DFDF8C2FDDDFDF91CF9108958CE5DECFD1
S1130B600895CF93C82F80EAD9DF8C2FD1DF81E19C
S1130B70CFDFCF910895CF93C82F81EACFDF8C2F99
S1130B80C7DFCF910895CF93C82F82EAC7DF8C2F98
S1130B90BFDFCF910895CF93C82F8BEABFDF8C2F8F
S1130BA0B7DFCF910895CF93C82F81EBB7DF8C2F98
S1130BB0AFDFCF910895CF93C82F83EBAFDF8C2F96
S1130BC0A7DFCF910895CF93DF93D82FC62F84EB5F
S1130BD0A5DF8D2F806A9CDF8C2F856099DFDF91E4
S1130BE0CF910895CF93C82F85EB98DF8C2F90DF9A
S1130BF0CF910895CF93C82F86EB90DF8C2F88DF99
S1130C00CF910895CF93C82F8BEB88DF8C2F80DF93
S1130C10CF910895CF93C82F8EEB80DF8C2F78DF90
S1130C20CF910895CF93C82F81EC78DF8C2F70DF9C
S1130C30CF910895CF93C82F87EC70DF8C2F68DF96
S1130C40CF910895CF93C82F8AEC68DF8C2F60DF93
S1130C50CF910895CF93C82F81ED60DF8C2F8268E8
S1130C6057DF80E255DFCF910895CF93C82F8DEFE2
S1130C7055DF8C2F82614CDFCF9108951F93CF9362
S1130C80DF93D82F67E780E04FDF6FE780E059DF1D
S1130C9065DF10E007C08D2F3BDFC150E1F71F5F18
S1130CA0103811F0C8E7F7CFDF91CF911F91089565
S1130CB088EB34DF8CE02CDF88E12ADF84E228DF54
S1130CC080E326DF8CE324DF88E422DF84E520DF71
S1130CD080E61EDF8CE61CDF88E71ADF84E818DF75
S1130CE080E916DF8CE914DF88EA12DF84EB10DF79
S1130CF080E014CF089528982FEF83ED90E32150DE
S1130D0080409040E1F700C00000289A82E1ADDF06
S1130D108EEA04DF81E94FDF8FE394DF80E033DF85
S1130D2080E029DF84E11DDF80E05CDF81E033DFE8
S1130D306DEF80EA48DF8FE775DF8FE07BDFB8DF98
S1130D4082EE31DF80E286DF8FE15CDF88E052DF14
S1130D5087E060DF86EAE2DE89EAE0DE80E08EDFBB
S1130D608FEADCCE089580E58CBD1DBC1EBC0895C1
S1130D708EBD0DB407FEFDCF8EB50895F894FFCF58
S9030000FC
