S02400005155544D535F5374656572696E67576865656C5F4669726D776172652E7372656335
S113000045C0000060C000005EC000005CC000008D
S11300105AC0000058C0000056C0000054C0000080
S113002052C0000050C000004EC000004CC0000090
S11300304AC0000048C0000046C0000044C00000A0
S113004042C0000040C000003EC000003CC00000B0
S11300503AC0000038C0000036C0000034C00000C0
S113006032C0000030C000002EC000002CC00000D0
S11300702AC0000028C0000026C0000024C00000E0
S113008022C0000020C000001EC0000011241FBEBA
S1130090CFEFD0E4DEBFCDBF15E0A0E0B1E0ECEFE0
S11300A0F7E000E00BBF02C007900D92AC3BB10734
S11300B0D9F727E1ACEBB5E001C01D92A03DB20732
S11300C0E1F73BD099C39CCFAAE7B0E01C92ECE7E0
S11300D0F0E080818F7D80838081806480838C9137
S11300E087688C930895ECE7F0E09081907E8F719F
S11300F0892B8083EAE7F0E08081806480838081BB
S113010084FFFDCF8091780020917900EAE7F0E048
S1130110908190619083237090E0922B08958AB12E
S1130120886C8AB984B1836A84B981B181B92F9A00
S1130130CBDF57D3D6D178940895F1DF41E060E066
S113014070E080E090E07BD241E060E070E081E02C
S113015090E075D241E060E070E082E090E06FD220
S113016041E060E070E083E090E069D241E060E06B
S113017070E084E090E063D2F1D140EB55E064E1BB
S113018070E082E390E00ED3E9D12FEF80E792E0B4
S1130190215080409040E1F700C0000080E0A3DFE0
S11301A09093BD058093BC052FEF80E792E021502A
S11301B080409040E1F700C000008091BC05909120
S11301C0BD058A3F910518F45E985F98DECF9C01C7
S11301D02A5F31092A3F310518F45E9A5F98D5CF1A
S11301E09C01245F31402A3F310518F45E985F9AE0
S11301F0CCCF8E3E924048F25E9A5F9AC6CF299841
S11302005B9AF4D25B9A299A089529985B98EED266
S11302105B9A299A089580E0F8CF0895CF93DF93ED
S1130220D82FC62F85E1F1DF8CE18D0FE8DF8CE15B
S11302308C0FE5DFDF91CF910895CF93DF93D82F13
S1130240C62F85E7E2DF8D2FDADF8C2FD8DFDF9131
S1130250CF9108958CE5D9CF0895CF93C82F81EA23
S1130260D4DF8C2FCCDFCF910895CF93C82F81EAB0
S1130270CCDF8C2FC4DFCF910895CF93C82F8BEAA6
S1130280C4DF8C2FBCDFCF9108958EEABECF0895D2
S11302908FEABBCF0895CF93DF93853020F080326F
S11302A018F08FE101C085E0D82FD695633028F08F
S11302B0C62F603118F0CFE001C0C3E081EBA5DFA9
S11302C0C69520E1C29FC00111248D2B98DFDF91D8
S11302D0CF910895CF93DF93D82FC62F83EB95DF6B
S11302E020E1C29FC00111248D2B89DFDF91CF91C2
S11302F00895CF93DF93D82FC62F84EB86DF8D2FFD
S1130300806A7DDF8C2F880F880F880F856077DFE8
S1130310DF91CF910895CF93DF93D82FC62F85EB2C
S113032074DF8C2F880F880F8D2B69DFDF91CF91BD
S11303300895CF93C82F86EB68DF8C2FC03108F067
S11303408FE05DDFCF9108958F92AF92BF92CF92ED
S1130350DF92EF92FF920F931F93CF93DF93CDB76A
S1130360DEB7B82ED62EF42E122F88EB4EDF8B2D4F
S113037046DF8D2D44DF8F2D42DF812F40DF802F1C
S11303803EDF8E2D3CDF8C2D3ADF8A2D38DF882D21
S113039036DF8E8534DF8F8532DF888930DF8989C7
S11303A02EDF8A892CDF8B892ADF35DFDF91CF911D
S11303B01F910F91FF90EF90DF90CF90BF90AF907F
S11303C08F9008958F92AF92CF92EF920F9384EB18
S11303D08F9388EA8F938CE98F9380E98F9384E8D5
S11303E08F9388E78F930F2EFCE68F2EF02D0F2E20
S11303F0F0E6AF2EF02D0F2EF4E5CF2EF02D0F2EBC
S1130400F8E4EF2EF02D0CE320E344E268E18CE005
S11304109BDF0F900F900F900F900F900F900F9104
S1130420EF90CF90AF908F900895CF93C82F8BEB20
S1130430ECDE8C2FE4DECF910895CF93C82F8EEBA2
S1130440E4DE8C2FDCDECF910895CF93C82F81ECAE
S1130450DCDE8C2FD4DECF910895CF93C82F87ECA8
S1130460D4DE8C2FCCDECF910895CF93C82F8AECA5
S1130470CCDE8C2FC4DECF910895CF93C82F81EDAD
S1130480C4DE20E1C29FC00111248268B8DE80E28C
S1130490B6DECF910895CF93C82F8DEFB6DE8C2FA3
S11304A0880F880F8261ABDECF9108951F93CF939D
S11304B0DF93D82F60E480E0B1DE60E480E0BDDE4D
S11304C0C9DE10E408C08D2F9ADE8D2F98DEC1504E
S11304D0D1F7115011F0C0E4F6CFDF91CF911F9105
S11304E0089528982FEF83ED90E3215080409040A9
S11304F0E1F700C00000289A80E0CDDFC6DE69E0A5
S113050081E0E8DE8FE3B1DF80E0AFDE80E0A5DEEE
S113051080EA7BDE84E173DE81E171DE60E080E00D
S1130520FADE81E0AADE6FE180E0E3DE8FE78DDFB3
S11305308FE093DF47DF6EE085E0ADDE80E09DDF96
S11305408FE173DF88E0F5DE87E077DF86EA5DDE42
S113055089EA5BDE80E0AADF9BCE08958F929F92AA
S1130560AF92BF92CF92DF92EF92FF920F931F93BD
S1130570CF93DF930F2EF6ECAF2EF5E0BF2EF02DC8
S1130580812C4DC0F60111916F01212F2370812F11
S11305908C70E82EF12CF594E794F594E794C12F30
S11305A0C073D0E0D595C795D595C795D595C79512
S11305B0D595C7951295169516951370022F000FB1
S11305C0000F022B67E7892D29DE6FE7882D35DEC2
S11305D041DEC701880F991F880F991F8E29F0E10A
S11305E00F9F90011124822B0ADECE01880F991FE0
S11305F0880F991FC82B80E1C89FE0011124812F27
S1130600880F880F812B8C2BFADD9394E0E49E12E3
S1130610B9CF8394F0E4AF0EB11C8E1619F06501C6
S1130620912CB0CFDF91CF911F910F91FF90EF905C
S1130630DF90CF90BF90AF909F908F900895FC0172
S1130640E370FF2796958795969587950024769570
S113065067950794769567950794762F602D680FB4
S1130660791F9B01772314F4295F3F4F3595279514
S1130670359527953595279551E0411101C050E0F6
S1130680852F90E0880F991F852B90E00E2E02C0D5
S1130690880F991F0A94E2F7DB01AA53BA4F43E08B
S11306A050E002C0440F551FEA95E2F740959C9133
S11306B04923842B8C93F901E053FA4E67707078C8
S11306C0772334F461507109686F7F6F6F5F7F4FD8
S11306D081E090E002C0880F991F6A95E2F7D90182
S11306E0A053BA4E9C91892B808308954F925F92B8
S11306F06F927F928F929F92AF92BF92CF92DF922E
S1130700EF92FF920F931F93CF93DF93582E492EAE
S11307105B01403211F0405201C040E6842F90E06A
S113072001973C01660C771C660C771C860D971D9F
S11307309C0120503F4F390100E010E0690135E091
S1130740C30ED11C17C0F40141914F0150E0002E9B
S113075002C0559547950A94E2F74170B701CE015E
S11307606EDF21968C149D0471F70F5F1F4F0830C4
S1130770110539F04301C52DD42D7501E00EF11E8C
S1130780E2CFDF91CF911F910F91FF90EF90DF9017
S1130790CF90BF90AF909F908F907F906F905F901D
S11307A04F900895EF92FF920F931F93CF93DF938F
S11307B0EC017B01FA014081442361F08F010F5F5A
S11307C01F4FB701CE0192DF2696F80141918F01A8
S11307D04111F7CFDF91CF911F910F91FF90EF90CF
S11307E0089580E58CBD1DBC1EBC08958EBD0DB45E
S10F07F007FEFDCF8EB50895F894FFCFEE
S11307FC00004F00000007000700147F147F14242E
S113080C2A7F2A12231308646236495522500005A4
S113081C030000001C2241000041221C0014083E6D
S113082C081408083E08080050300000080808089E
S113083C08006060000020100804023E5149453E47
S113084C00427F400042615149462141454B3118D9
S113085C14127F1027454545393C4A4949300171EA
S113086C0905033649494936064949291E003636D5
S113087C000000563600000814224100141414140D
S113088C1400412214080201510906324979413EEF
S113089C7E1111117E7F494949363E414141227FE7
S11308AC4141221C7F494949417F090909013E41C3
S11308BC49497A7F0808087F00417F410020404164
S11308CC3F017F081422417F404040407F020C02CC
S11308DC7F7F0408107F3E4141413E7F0909090690
S11308EC3E4151215E7F0919294646494949310146
S11308FC017F01013F4040403F1F2040201F3F40EB
S113090C38403F63140814630708700807615149A1
S113091C4543007F41410002040810200041417FFF
S113092C0004020102044040404040010204000063
S113093C20545454787F4844443838444444203830
S113094C4444487F3854545418087E09010206491B
S113095C49493F7F0804047800447D40002040440A
S113096C3D007F1028440000417F40007C041804A3
S113097C7C7C0804047838444444387C14141408EB
S113098C081414187C7C0804040848545454200497
S113099C3F4440203C4040207C1C2040201C3C40D8
S11309AC30403C44281028440C5050503C4464546F
S11309BC4C44000836410000007F0000004136081A
S11309CC0002010204023E555541220000000000C1
S11309DC00007900001824742E24487E4942405D9E
S11309EC2222225D15167C161500007700000A558C
S11309FC5555280001000100000A0D0A0408142AA8
S1130A0C1422040404041C00080808000101010158
S1130A1C01000205020044445F4444000004020146
S1130A2C7E2020103E060F7F007F00181800000067
S1130A3C40502000000A0D0A0022142A140817083A
S1130A4C342A7D1708046A593048454020702926F9
S1130A5C28707028262970702A252A707229262954
S1130A6C707029242970702A2D2A707E117F4949AF
S1130A7C0E515171117C555654447C555654447C3A
S1130A8C565556447C5554554400457E4400004408
S1130A9C7E450000467D460000457C45007F494963
S1130AAC413E7C0A11227D3845464438384446453B
S1130ABC383846454638384645463938454445382D
S1130ACC22140814222E5149453A3C4142403C3CE4
S1130ADC4042413C3C4241423C3C4140413C0C1074
S1130AEC62110C7F1212120C403E014936205556ED
S1130AFC54782054565578205655567820555655CA
S1130B0C7820555455782056575678245478545890
S1130B1C0C525272133855565418385456551838BA
S1130B2C56555618385554551800497A4000004803
S1130B3C7A4100004A794200004A784200314A4E18
S1130B4C4A307A110A097030494A483030484A49C7
S1130B5C30304A494A30304A494A31304A484A309E
S1130B6C08082A08083864544C383841422078382C
S1130B7C40422178384241227838424022780C5045
S1130B8C52513C7E141414080C5150513C1E09094A
S1130B9C295E081515354E384446452030484A49D7
S1130BAC20384546452030494A49207C454645383D
S1130BBC2050507C031F151535510E151535467CE8
S1130BCC55565544385556551800447C40007F48BA
S1130BDC44404000497F44007C0812217C78100A70
S1130BEC09707C0912217C78110A09703847444732
S1130BFC38304B484B303E417F494938443854587F
S1130C0C7C1516354878110A09104854565520207D
S1130C1C485655204855565520204956552004050C
S1130C2C7E0504083C4822013C4245423C3842457E
S1130C3C22783C4340433C38434023780C116011E8
S1130C4C0C4466554C44486A5948004464554C4419
S1130C5C48685A48004465564D4448695A4900004E
S1130C6C0201020000010201000001010100010265
S1130C7C0201000000010000000205020002010252
S1130C8C01007F05153A503E55554122181408149D
S1130C9C0C444A4A515151514A4A44744241427497
S10F0CAC3132333435363738393000002B
S9030000FC
